:100000000C9434000C943E000C943E000C943E0082
:100010000C943E000C943E000C943E000C943E0068
:100020000C943E000C943E000C943E000C943E0058
:100030000C943E000C943E000C943E000C943E0048
:100040000C943E000C943E000C943E000C943E0038
:100050000C943E000C943E000C943E000C943E0028
:100060000C943E000C943E0011241FBECFEFD8E04C
:10007000DEBFCDBF0E944C000C945C000C940000CD
:1000800085B1806285B9089585B18F7D85B9089560
:1000900089B1817090E008958AB18E7F8AB984B168
:1000A000806284B90E944800892B19F00E944400A4
:0C00B000F9CF0E944000F6CFF894FFCF7B
:00000001FF
